:0800030012013A12010680FB14
:0601540000007F03DFFE46
:01015A002282
:1000C100EF1FAA0670011E4A6013E4FCFDC3ED9404
:0D00D10078EC940550EA0DBD00010C80F0A4
:0100DE0022FF
:0D011500C2927FF47E011200C1D29200223E
:06009E008F828E83A9058C
:1000A400E4FBEBC3995015C292AF82AE831200C138
:0C00B400D292AF82AE831200C10B80E636
:0100C000221D
:1000F500438E805389F0758A80758C44C28DD28C6D
:0101050022D7
:08014C001200F5D2A9D2AF2286
:03000B0002000EE2
:0D000E00C0E0C0F0C083C082C0D075D00833
:10001B000511E51170020510FFAE10E4FCFD7B0A23
:10002B00FAF9F8C31200DF500675100075110005C0
:10003B0013E51370020512FFAE12E4FCFD7BFAFA16
:0E004B00F9F8C31200DF50067512007513009D
:0B005900D0D0D082D083D0F0D0E032B5
:0F010600D2B012015412015420B00375C7602209
:09013A0012006412012202015BB3
:0C012200C2927F207E031200C1D2922204
:06015B0012014C020143F9
:100064007580FF7590FF75A0FF75B0FF75C0FF75B3
:10007400C8FF75E8FF75F8FFE4F594F593F592F57C
:1000840091F596F595F5B2F5B1F5B4F5B3F5CAF574
:0A009400C9F5CCF5CBF5E2F5E12249
:090143007D037F327E0002009E64
:0300000002012ECC
:0C012E00787FE4F6D8FD75811302000311
:1000DF00EB9FF5F0EA9E42F0E99D42F0EC6480C898
:0600EF0064809845F02238
:00000001FF
